:020000040800F2
:10000000300B0020D5000008651B00088719000888
:1000100000000000000000000000000000000000E0
:100020000000000000000000000000005B1F00084E
:100030000000000000000000351F00085D1F0008E0
:100040000501000805010008050100080501000878
:100050000501000805010008050100080501000868
:100060000501000805010008050100080501000858
:100070000501000841200008050100085120000882
:100080000501000800000000000000000501000854
:100090000000000005010008050100080501000836
:1000A00000000000391F00080501000805010008D4
:1000B000050100080000000005010008252A0008CD
:1000C0000348854600F048F8004800476D2A0008BC
:1000D000300B00200C4880F308880C480168090E9A
:1000E0000B4A914205D10B480B4901600B480C4962
:1000F00001600C4880470C480047FEE7FEE7FEE73A
:10010000FEE7FEE7FEE70000300B002004000000E1
:100110001F00000018100240010000000000014014
:1001200000000000E51F0008C100000830B50B46C4
:10013000014600202022012409E00D46D5409D42C1
:1001400005D31D469540491B254695404019154647
:10015000521E002DF1DC30BD064C0125064E05E097
:10016000E36807CC2B430C3C98471034B442F7D3D8
:10017000FFF7AAFF502B0008702B000870B5002471
:10018000014620314A78022A03D0042181630124E8
:1001900016E0026813680E25AB431360026813680B
:1001A0005B085B0013600122056C1346AB40C56B16
:1001B0006B604A7000220A70416B002900D08847AA
:1001C000204670BDF0B5002353E001229A4014464A
:1001D0000A404DD006685F000325BD40AE43AC46E3
:1001E0000660DD08AD002D182E6AAE465D07EF0EE5
:1001F0000F25BD40AE4375462E6286686546AE4308
:1002000086604568A5434560C4686546AC43C460E4
:100210009D081A4CAD002D19AF689C07260F0F24BE
:10022000B440A4463C400927FF06B84201D100274C
:100230000AE0134FB84201D1012705E0114FB8423F
:1002400001D1022700E00527B740A74210D1AE68D0
:100250006446A643AE600C4C2568954325606568EE
:1002600095436560A5689543A560E5689543E5609D
:100270005B1C0A46DA40A8D1F0BD00000000014036
:10028000000400480008004800040140F8B50023BD
:1002900089E001249C402A46A44622407ED04C6836
:1002A000022C01D0122C0CD1DC08A40027183C6AC7
:1002B0005D07ED0E0F26AE40B4430E69AE402643F7
:1002C0003E6205685E000324B4400F79A543BF0772
:1002D000BF0FB7402F4307604D68012D05D0022D99
:1002E00003D0112D01D0122D0ED18568CF68A54302
:1002F000B7402F43876047686546AF430D79ED06E9
:10030000ED0F9D403D434560C568A5438C68B440F2
:100310002C43C4604C68E40044D5264CA5690126F2
:100320003543A561A4699D0834400094224CAD007A
:100330002F19BC689D072E0F0F25B540AC4309252A
:10034000ED06A84201D100250AE01C4DA84201D1CA
:10035000012505E01A4DA84201D1022500E005253E
:10036000B5402543BD60174C25684E689543F6039C
:1003700000D51543256065684E689543B60300D5E2
:1003800015436560A5684E689543F60200D5154390
:10039000A560E5684E689543B60200E002E000D52E
:1003A0001543E5605B1C0A681546DA4000D070E72B
:1003B000F8BD0000001002400000014000040048A9
:1003C0000008004800040140002A01D08161704704
:1003D00081627047014800687047000004000020F7
:1003E00002480168491C01607047000004000020B9
:1003F00010B506480168102211430160002000F08A
:1004000007F800F017F8002010BD0000002002409F
:1004100010B5044600F07EFD7D21C900FFF786FE81
:1004200001F028F800222146501E00F041F800207B
:1004300010BD000008B51248816901221143816195
:10044000816911400091C26901040A43C261C06917
:100450000022084000901146501F00F029F80022A9
:100460001146901E00F024F800221146501E00F0A4
:100470001FF80448016810221143016008BD000004
:100480000010024000000140C106C90E0120884052
:10049000014908607047000080E100E0C106C90E14
:1004A00001208840014908607047000000E100E039
:1004B00010B501F059FB10BD1C224A43121810B5AB
:1004C000FF30FF300230926BC06901F0CBFF10BDEE
:1004D0001C224A43121810B5FF30FF32FF300132A0
:1004E00002309269C06902F018F810BDF0B54B06F1
:1004F000CA095B0E002A04D01C225A431218283263
:1005000004E01C224A431218FF320932002494707E
:1005100013700346C909FF335170E133197A012979
:100520001AD00121197251781A4C002911780668E5
:1005300014D08D00715B4F0603D52140164C21432A
:100540007153117800688A00124C815A303421406E
:1005500010246140202414E00220F0BD8D00715B66
:100560004F0403D521400D4C21437153117800688D
:100570008A000A4C815AF13C214001242403614045
:1005800064006140044C403C2143815200201872B9
:10059000F0BD00008F8F0000C080000080C0000010
:1005A000F0B54D066D0E2E461C246543CF092C1860
:1005B000002F01D0283401E0FF3409342670C90926
:1005C00061700146FF31E260E131E3708C46097AE7
:1005D00001290DD0012261460A72E2789349002A6E
:1005E00008D0012A20D0022A0DD0032A25D111E0FB
:1005F0000220F0BD237802689B00D55A0D40FF35DC
:10060000FF35023504E0237802689B00D55A0D407F
:10061000D55212E02278036892009D5A0D400321C2
:1006200049026918995208E0237802689B00D55A5C
:100630000D40012189026918D15226780768B5005A
:100640007B5B7B497B4A0B40134333437B53A57A47
:10065000002D53D02578784E0B400768AD0033430A
:100660007B53E38850265D0803686D00F65AF61840
:100670002378DF0001239B02FB18F55223895026C3
:100680005D0803686D00F65AF6182378DF005311F1
:10069000FB18F55263780768002B237875D09D000E
:1006A0007B5B5E0403D5654E0B4033437B5323785D
:1006B00007689D007B5B5E0604D55E4E0B404036AE
:1006C00033437B53237805689E00AB5B0B405B494B
:1006D0000B43AB53564E21783036334005688900C2
:1006E00013436B522178554C00688900F13C23403C
:1006F00013434352002061460872F0BD6378002B1B
:10070000A3881FD05D0803685026F65A6D00F618BE
:100710002378DF0001239B02FB18F552237807683A
:100720009D007B5B5E0604D50B40424940310B4384
:100730007B53016820783E4C8300C85A30342040F7
:10074000202440E05D0803685026F65A6D00F61834
:100750002378DF003A4BFB18F55203685025ED5A19
:10076000374EEB182578B61CED00AD195E19E3681D
:100770003E2B0BD9DD022D0CDB0601D16D1EADB277
:10078000AB020125ED032B4307E020E0DD032D0C38
:10079000DB0701D06D1CADB2AB0233802378076854
:1007A0009D007B5B5E0403D50B4024490B437B53C8
:1007B00001682078214C8300C85AF13C2040012474
:1007C00024036040640060401043C85292E79D00DB
:1007D0007B5B5E0403D5194E0B4033437B53237878
:1007E00007689D007B5B5E0604D5124E0B404036C9
:1007F00033437B53237805689E00AB5B0B400D4968
:1008000040310B43AB530D4E2178F13E334001266E
:1008100036037340760073400568890013436B52BA
:100820002178034C89000068303460E78F8900002C
:100830008F8F0000808000008081000080C0000059
:1008400004040000F0B54D066D0E1C246C43241802
:10085000FF340934636122610022A2616270257055
:10086000E5681E46AB4201D92B46F21A6261A67AB0
:1008700049060122890DD203002E2F4D06680CD0A7
:100880005027BF5BBE192F1FC91976183E2B15D9EB
:10089000D902090CDF060CD00DE05027BF5B4919C7
:1008A000BE19751820E08902114300E089022980F1
:1008B00032E0491E89B28902114306E0D903090CCE
:1008C000DF0701D0491C89B2890231806178002993
:1008D00002D0012918D01FE001685026765A7118FD
:1008E0002678F60075194D193E2B06D9D902090C48
:1008F000DB06D8D1491E89B2D5E7D903090CDA073E
:10090000D4D0491C89B2D1E701685022525A5118FB
:100910002278D20052198B5201682078074B82004E
:10092000885A184001231B0358405B005840044B71
:10093000184388520020F0BD060400008FBF00005D
:1009400080800000F0B50246FF32E132137A012BBD
:100950000BD001244F06CB097F0E1472002B06D05A
:100960001C237B431B18283306E00220F0BD1C2308
:100970004B431B18FF3309339C701F70CE095E7008
:10098000012424031025114B002F0BD04906C90D5B
:10099000002E10D004680E4E605A30406840184354
:1009A000605210E001680B4E08883040604068409B
:1009B0001843088007E00568064E685A303E30400C
:1009C00060401843685200201072F0BD8080000023
:1009D000BF8F0000BFBF0000F0B506461D464806A9
:1009E000400E1C2343439C19E563A263002222644A
:1009F0000123283463702070E0682B46854203D9B8
:100A00000546181A606100E06261A07A2A4F00284A
:100A100010D0227830689200825C49065206890D17
:100A2000002A16DA5022125A10183A1D8918455217
:100A3000228914E0ABB2A2882169306801F067FA1C
:100A400030685021095A08182178C900C91945523F
:100A500020E05022125A1018C9194552E288ABB250
:100A60002169306801F053FA61781448002902D0F6
:100A7000012907D00EE0217832688B00D15A01405D
:100A80000F4805E0217832688B00D15A01400D48AB
:100A90000143D152207831688200084B885A3033A4
:100AA00018401023584020235840054B403B184322
:100AB00088520020F0BD0000020400008F8F00006B
:100AC000C080000080C0000070B50446006840305F
:100AD0008088C00B02D0204601F068F820684030C2
:100AE000818849050AD58188334A11408180204692
:100AF00000F070F80021204600F096F820684030A1
:100B00008188490403D581882C4A1140818020685E
:100B100040308188890403D58188294A1140818029
:100B20002068403081880425C904002910DA018832
:100B3000A9430180BD202168000240310880204681
:100B400000F054F82068403081881E4A11408180AE
:100B5000206840308188090517D581881A4A1140DC
:100B6000818020684030018808221143018020687C
:100B70004030018829430180206840308088C0438C
:100B8000C00402D5204600F071F82068403081880A
:100B9000890506D581880D4A11408180204600F0E4
:100BA0003BF8206840308188C90503D58188084A10
:100BB0001140818070BD0000FFFB0000FFBF0000FE
:100BC000FFDF0000FFEF0000FFF70000FFFD000067
:100BD000FFFE000010B5C41DFF34FA340121E069A6
:100BE00001F048FDE06901F00DFD10BD10B50446AF
:100BF0008069002806D007480169062291430161F7
:100C000001F0B2F9FF34FF340234E06901F01DFD58
:100C100010BD000000ED00E0FF3010B5FF300230E5
:100C2000C06901F018FD10BD0246FF32E132137AAF
:100C3000012B08D001231372002906D02030017146
:100C400000201072704702207047006880214030F9
:100C50008181F5E710B5872189000A580146FF31E7
:100C6000ED31104601F01CFD10BD000010B504462A
:100C7000FF30FF300230C06901F054FDA069002848
:100C800004D00348016906221143016110BD000030
:100C900000ED00E0054801680222114301600448AC
:100CA000016904221143016130BF704700700040A8
:100CB00000ED00E0F8B5044600683E4DC00352D593
:100CC000E8690026C00007D4E96928040143E96106
:100CD000E96901400126009137480168C90510D42F
:100CE0000168821511430160FFF774FB074604E0B9
:100CF000FFF770FBC01B642824D82F480068C0058C
:100D0000F6D5286A03273F02384020D06168394071
:100D100081421CD0286A2A6AB843012109040A4387
:100D20002A622A6A8A432A622862C0070FD0FFF724
:100D300051FB009008E0FFF74DFB0099411A1F4856
:100D4000814201D90320F8BD286A8007F3D5286ABB
:100D50006168B84308432862002E04D0E969012085
:100D600000078143E9612078C00705D0286BA1689E
:100D700080088000084328632078800605D5286B0A
:100D800010218843E168084328632068800305D563
:100D9000286B8021884361690843286320884005C7
:100DA00005D5286B4021884321690843286300202A
:100DB000F8BD0000001002400070004088130000E1
:100DC000F8B505464E480E460068C007C00FB04251
:100DD0000AD24B4801684908490031430160006864
:100DE000C007C00FB04270D12878464C800705D5A7
:100DF0006068F0218843A968084360602878C007CC
:100E000053D06868012817D0022818D0032819D0B9
:100E100021688907002958DA616889088900014337
:100E20006160FFF7D7FA69680746012913D00229E4
:100E30001DD0032927D034E021688903EAE721681F
:100E40008901E7E7616BC903E4E7FFF7C3FAC11B58
:100E50002D48814223D860680007800F0128F4D113
:100E600023E0FFF7B7FAC11B2748814217D8606813
:100E70000007800F0228F4D117E0FFF7ABFAC11B7F
:100E8000214881420BD860680007800F0328F4D105
:100E90000BE0FFF79FFAC11B1B48814201D90320D9
:100EA000F8BD60680007800FF3D115480168C907D5
:100EB000C90FB1420BD901684908490031430160AB
:100EC0000068C007C00FB04201D00120F8BD2878EB
:100ED000400706D56068072109028843E96808438E
:100EE000606000F01DF86168084A0906090F515C4E
:100EF000C840074908600020FFF78AFA0020F8BDC3
:100F0000002002400010024088130000402B00081F
:100F10000800002001480068704700000800002019
:100F200030B516A30FCB89B06C460FC417A30FCBF7
:100F30000FC41A494A680C20144604401848042C6F
:100F400005D0184B082C04D00C2C00D1184609B041
:100F500030BD9402240F6D462C5DC96A04AD0907AB
:100F6000090FD203695C920F022A02D0032A00D132
:100F70001846FFF7DBF86043E9E7000002030405C9
:100F8000060708090A0B0C0D0E0F101001020304CE
:100F900005060708090A0B0C0D0E0F100010024081
:100FA00000127A00006CDC02FEB504460078F04EB8
:100FB000F04DC00748D068680007800F01281FD097
:100FC00068680007800F022804D16868C003800F9A
:100FD000022815D06168012919D001208004002958
:100FE00001D0052917D02968B143296029688143B8
:100FF0002960606800281BD0FFF7ECF9074613E072
:101000002868800320D56068002876D01CE0286816
:1010100030432860EDE7296801432960F7E7FFF7CF
:10102000D9F9C01B642869D828688003F7D50BE07C
:10103000FFF7D0F9074604E0FFF7CCF9C01B64289E
:10104000F1D828688003F7D4207880073ED56868F7
:101050000007800F14D068680007800F022804D1B1
:101060006868C003800F01280AD0E068002828685B
:101070001DD0012108432860FFF7ACF907460BE0BB
:10108000286880070BD5E068012836D107E0FFF714
:10109000A1F9C01B0228C6D828688007F7D52868A0
:1010A000F82188432169C900084328600EE0400800
:1010B00040002860FFF78EF9074604E0FFF78AF941
:1010C000C01B0228AFD828688007F7D42078000713
:1010D00024D5E0690028686A11D0012108436862BC
:1010E000FFF778F9074604E0FFF774F9C01B022800
:1010F00099D8686A8007F7D510E036E1D1E040085A
:1011000040006862FFF766F9074604E0FFF762F9FE
:10111000C01B022887D8686A8007F7D42078042784
:101120004007002861DA00200190E869C00008D477
:10113000E969B8060143E961E969014001200091CC
:1011400001908D480168C90511D4016882151143C9
:101150000160FFF73FF9009005E0FFF73BF90099C8
:10116000401A642897D884480068C005F5D5A0685F
:1011700001280AD0002801D0052811D0286A40088B
:1011800040002862286AB84302E0286A0121084327
:101190002862A068002812D0FFF71CF900900AE02E
:1011A000286A38432862F0E7FFF714F90099411ADA
:1011B0007248814275D8286A8007F5D50DE0FFF79F
:1011C00009F9009006E0FFF705F90099411A6B480C
:1011D000814266D8286A8007F5D40198002804D097
:1011E000E969012000078143E9612078C00635D50F
:1011F000606901280CD0401D686B24D038436863B7
:10120000686B400840006863FFF7E4F8074622E097
:10121000686B38436863686B012108436863FFF7B4
:10122000D9F8074604E0FFF7D5F8C01B022838D8E4
:10123000686B8007F7D5686BF8218843A169C900FE
:10124000084368630AE0B8436863F4E7FFF7C2F84D
:10125000C01B022825D8686B8007F7D42078800649
:1012600037D568680007800F032813D06868000727
:10127000800F022804D16868C003800F032809D0BA
:10128000206A0028686B16D030436863FFF7A2F825
:1012900006460CE0686BC0031BD5206A012864D1A8
:1012A00017E05BE0FFF796F8801B022856D8686BC2
:1012B000C003F7D50DE0B0436863FFF78BF806462F
:1012C00004E0FFF787F8801B022847D8686BC0034B
:1012D000F7D4606A002846D069680907890F022997
:1012E00043D0012636060228286805D0B04328607E
:1012F000FFF770F8044633E0B0432860FFF76AF860
:10130000074604E0FFF766F8C01B022826D82868C5
:101310008001F7D4E86A216B000900010843E86204
:10132000A16AE06A084369687B22D20391430843BB
:101330006860286830432860FFF74CF8044604E0F2
:10134000FFF748F8001B022808D828688001F7D565
:1013500009E0FFF73FF8001B022801D90320FEBD7A
:1013600028688001F5D40020FEBD0120FEBD0000EC
:1013700000000100001002400070004088130000CF
:1013800070470000F8B504460068426881684B0663
:1013900005D4CB0703D0530601D5E16C04E08B07DD
:1013A00005D5130603D5216D20468847F8BDFF23D8
:1013B00061331942FAD09306F8D523464D064033DF
:1013C000002D09DA5D7F032D3CD0256E04263543C0
:1013D0002566C568856800958E060125002E08DA09
:1013E000266E2E4326668668009606684027BE4312
:1013F0000660C80506D5206E0821084320662068CF
:1014000080680090206E0028D0D020684168E026D7
:10141000B14341605D77900718D020684168890822
:1014200089004160A06D0B4D002803D04563A06D7D
:10143000FEF7A4FE606D0028B8D04563606DFEF72E
:101440009DFEF8BDC16880680090F8BD2046FFF79A
:1014500097FFF8BD491F00080422044904280869C1
:1014600002D09043086170471043FBE700E000E0C2
:1014700070470000094910B5401E884201D901207B
:1014800010BD074C60610321081F00F06DFB0020B8
:10149000A06107202061002010BD0000FFFFFF00B9
:1014A00000E000E010B5FFF7E3FF10BD70477047A4
:1014B00070B5034620331A7F012A27D001241C77F8
:1014C00002225A770326CA683602B2438E68002584
:1014D0003243A602B2434E6800683243E602B2438A
:1014E0000E6832432603B2430E6932436603B243A9
:1014F0004E6989693243A603B2430A43E603B24305
:101500000A4342645C771D77002070BD022070BDE5
:1015100070B502462032137F012B1BD001231377B5
:1015200002245477046865687026B54365600468D2
:1015300065680E68354365600468A5688026B54314
:10154000A5600068846849680C4384605377002074
:10155000107770BD022070BD0268D36801210B4373
:10156000D360006802680A430260002070470000F0
:10157000F8B50D46040005D026462036707F0028B9
:1015800002D006E00120F8BD00203077204600F0B0
:101590003BF80220707720688168C908C900816023
:1015A000211D206800F05CFD226890689369116A33
:1015B0002F680743BC461248AF6903403F021F43F0
:1015C000A868104B3843EF6918403F020743EB68A7
:1015D00028693B432F6A00013F0338431843AA237D
:1015E00099436B686D6967462D010D432B439760E6
:1015F0002168886120680362012070770020F8BDAF
:10160000FCFCFFFF0303FFFF704770B50446022593
:101610000068002910D00426042915D001220021D9
:1016200000F060FD01220421206800F05BFD2068CD
:10163000C1682943C1600BE00122002100F052FD86
:101640002068C168294306E00122042100F04AFD18
:101650002068C1683143C1602068016801221143DC
:101660000160002070BD704770B5044600680169D4
:101670000025C9438907002915DBC168C9438907CB
:1016800011D4E91E0161012020772068806980075C
:10169000204602D0FFF7E7FF04E000F0BEF8204646
:1016A00000F06EF9257720680169C943490717D40E
:1016B000C168C943490713D40421C9430161022009
:1016C0002077206880698005800F204602D0FFF7D0
:1016D000CAFF04E000F0A1F8204600F051F9257798
:1016E00020680169C943090716D4C168C9430907BD
:1016F00012D40821C9430161042020772068C06901
:101700008007204602D0FFF7AEFF04E000F085F826
:10171000204600F035F9257720680169C943C906DC
:1017200017D4C168C943C90613D41021C943016144
:10173000082020772068C0698005800F204602D0ED
:10174000FFF791FF04E000F068F8204600F018F978
:10175000257720680169C943C90708D1C168C94311
:10176000C90704D1891E0161204600F00AF92068EA
:101770000169C943090609D4C168C943090605D4EA
:101780008021C94301612046FFF790FE206801696E
:10179000C943490609D4C168C943490605D4402153
:1017A000C9430161204600F0EDF820680169C94392
:1017B000890609D4C168C943890605D42021C943D3
:1017C00001612046FFF773FE70BD70B504462034FA
:1017D000237F012B0CD00125257702236377002A74
:1017E00008D0042A0AD0082A0CD00C2A11D10DE006
:1017F000022070BD006800F081FC0AE0006800F083
:10180000B9FC06E0006800F0EFFC02E0006800F0C0
:1018100027FD65770020207770BD704770B5040004
:1018200005D025462035687F002802D006E001203B
:1018300070BD00202877204600F02CF80220687741
:10184000211D206800F00CFC01206877002070BD8D
:1018500010B50E4A01680E48914205D18169C21443
:10186000914381610D200DE00122920791420BD13D
:10187000C16949084900C16109200321C006FEF77A
:10188000A1FC0F20FEF700FE10BD0000002C01405F
:101890000010024000B51B4A01681B4887B0914206
:1018A0000DD18269C1140A43826180690022084017
:1018B000059011460D20FEF7FBFD0D201DE00122D5
:1018C000920791421BD1C26901210A43C261C069DA
:1018D0000291084005900320009002200190002111
:1018E0000490039109206946C006FEF7CFFC002250
:1018F00011460F20FEF7DCFD0F20FEF7CFFD07B0ED
:1019000000BD0000002C01400010024010B502682C
:101910000446002906D0042907D0082923D00C2921
:1019200007D123E0D068022301E0D06804231843E4
:10193000D0600122206800F0D5FB0E492068884263
:1019400005D00D49884202D00C49884204D1416C2F
:101950000122D2031143416420680168012211432E
:101960000160002010BDD0680823E0E7D068102394
:10197000DDE70000002C0140004401400048014028
:10198000704770477047FEE7F0B52F4887B042694F
:10199000012189040A43426142690A400592426971
:1019A00009010A43426142690A40059242694911AC
:1019B0000A434261406900220840FF21059003313B
:1019C0002248FEF701FD224F002203213846FEF790
:1019D000FBFC0926F60600221C213046FEF7F4FC2B
:1019E000FF200130002401250090029469460195F2
:1019F00003941648FEF74AFC0320009002946946BF
:101A0000019503943846FEF741FC042000900294AF
:101A10006946019503943046FEF738FC18201125DD
:101A2000009002946946019503943046FEF72EFC1F
:101A30000220009002946946019503940348FEF742
:101A400025FC07B0F0BD0000001002400004004873
:101A50000014004810B51F4890B01D4901600024D3
:101A6000FF21846041600461F9214461C1608021EB
:101A70008161FFF7D3FE002800D0FEE70E940EA987
:101A800014480F94FFF744FD002800D0FEE70094AF
:101A900001940294039404940594002269460D482D
:101AA0000694FFF792FE002800D0FEE7012007947D
:101AB000400308940C9009940A940B9407A90D9480
:101AC0000448FFF7F5FC002800D0FEE710B010BD79
:101AD000002C01407400002010B501211F4892B075
:101AE0008907002412C0046084601D4904614160BC
:101AF0000838FFF793FE002800D0FEE70120009091
:101B00000194029003940690049405940794694606
:101B100008941248FFF72CFD002800D0FEE710942F
:101B200010A90E481194FFF7F3FC002800D0FEE73F
:101B300009940A940B94082209A908480D94FFF708
:101B400044FE002800D0FEE70C2209A90348FFF755
:101B50003CFE002800D0FEE712B010BDB40000200B
:101B6000FFFF0000704700008307FF22DB0E9A4052
:101B70008907090E994000280BDA0007000F083882
:101B8000830808489B001818C36993430B43C3613B
:101B90007047830804489B001B181868904308434B
:101BA0001860704700ED00E000E400E0F0B585B09B
:101BB00004460020694688802646203678E19A89C6
:101BC00017073F0F26D0B9000291425A9A80998890
:101BD00009047DD5BE490A400299425238461C216B
:101BE00048430519FF350935A87A0028206870D0C8
:101BF00029788A00825A52046CD55022125ACB009E
:101C0000B44912185918515A8905890D00917DD08F
:101C1000EA88BDE09A89D20627D40188AE4A2546D3
:101C20001140018020685021095A28350818297868
:101C3000CA00A8495118405A8005800D2064A16B44
:101C40000818A06300212046FEF736FC30790028F2
:101C5000B4D068690028B1D1307980210843216867
:101C6000403188810020307122E12546FF3502880D
:101C700009359A809B881B0519D5098A0918287887
:101C8000C2009448001D1018085A294683059B0D70
:101C9000AB61AA88E431206800F024F920688C4AFE
:101CA0000188114001802046FEF7D4FF00E169461B
:101CB00089880904D8D58649864F0A400280206861
:101CC0005021095A3F1D09182878C000C01902E0A8
:101CD00085E03DE04FE0085A83059B0DAB6108D0DD
:101CE000AA882969206800F0FDF8A96928694018C8
:101CF000286100212046FEF7EBFB206801464030BA
:101D0000008A4018C119E8683E2800E044E00AD97A
:101D1000C202120CC00601D1521E92B290020122E0
:101D2000D203104306E0C203120CC00701D0521CBC
:101D300092B2900208802168684A08881040012207
:101D40001203504052005040654A10430880AFE0F3
:101D50005021095A0A182978CB005E49091D5918E3
:101D6000515A8905890D009121D0AA882969009BC3
:101D700000F0B8F81BE05022CB00125A5549121857
:101D8000091D5918515A8905890D009104D02A89D5
:101D90002969009B00F0A6F8297820688A004E4B3C
:101DA000815A803319404E4B403319438152A969FF
:101DB00000980818A861296900980A182A616B69B7
:101DC000002B03D0E9680098814204D92978204685
:101DD000FEF77EFB03E029782046FEF733FD6846D8
:101DE0008088000664D51C204743206802993A4A3F
:101DF000415A3D191140029A28358152A87A00288B
:101E0000206811D029788A00825C52061ED55022A3
:101E1000125AC90012182F480818105A83059B0D32
:101E2000AB6124D0EA881EE05021095A09182878AD
:101E3000C20028481018085A83059B0DAB6121D0B9
:101E4000AA882969206800F062F81BE05022125A23
:101E5000C90012181F48001D0818105A83059B0D51
:101E6000AB6104D02A892969206800F050F82878ED
:101E700022688000184B115A80331940174BF133F8
:101E80001943115220685021095A09182878C200B4
:101E900010481018085A8005800DA86129690A1891
:101EA0002A616B692978002B20460DD0FEF794FD3E
:101EB0002068014640318A886B469A81120400D519
:101EC0007DE6002005B0F0BDFEF7F6FAF0E7000071
:101ED0008F0F0000020400000F8F00008FBF000072
:101EE00080800000101810B5012292025C08801852
:101EF000002C07D002880A70120A4A70801C891CC4
:101F0000641EF7D1DA0701D00078087010BD1018F0
:101F100001225B1C920210B55B088018002B08D0D0
:101F20004A780C78120222430280801C891C5B1EB6
:101F3000F6D110BD7047000010B50248FFF722FA35
:101F400010BD00001000002010B5406A002146229C
:101F50001152C187FFF714FA10BD704710B5FEF794
:101F60003FFAFFF79FFA10BD30B597B022200090DE
:101F70000120039008900225102009950490C002CA
:101F800000240A900B940C946846FFF70DF8002883
:101F900000D0FEE707200D900F9400210E951094BD
:101FA0000DA8FEF70DFF002800D0FEE70120400439
:101FB0001694119011A8FEF77DFE002800D0FEE7D0
:101FC000FEF7A8FF7D21C900FEF7B0F8FFF752FA2F
:101FD0000420FFF741FA00221146501EFEF768FA6E
:101FE00017B030BD134801680122114301604168F8
:101FF000114A114041600168104A114001600168B6
:10200000012292049143016041683F2212049143EE
:102010004160C16A09090901C162016BFF22D43222
:1020200091430163416B490849004163002181608C
:1020300070470000001002400CB8FF08FFFFF6FEDA
:1020400010B50248FFF710FB10BD0000740000201F
:1020500010B50248FFF708FB10BD0000B4000020D7
:10206000F0B502681A4B0124A4071A4D984203D018
:10207000A04201D0A84203D17026B2434E68324339
:10208000154E164F98420AD0A04208D0A84206D05A
:10209000134CA04203D0B04201D0B84204D1032473
:1020A0002402A243CC6822438024A2434C692243E9
:1020B00002608A68C2620A688262984203D0B042B3
:1020C00001D0B84201D10969016301214161F0BD2C
:1020D000002C014000040040004401400048014041
:1020E0000020004010B50123046A8B409C43046229
:1020F000036A8A401343036210BD0000F0B5026A10
:10210000520852000262056A436882697024A24341
:1021100092080C6892001443022295438A68134E79
:102120002A43114DA84204D0B04202D0104FB84209
:1021300006D10827BA43CF681743042297433A468B
:10214000A84204D0B04202D0094DA84206D10325CE
:102150002D02AB434D691D438B692B434360846162
:10216000496841630262F0BD002C01400044014017
:102170000048014070B5026A10239A430262046A63
:102180004368826973252D02AA430D682D02154309
:10219000202294438A6812012243104CA04208D1A5
:1021A0001446CA688026B443120122434024A24345
:1021B00005E00B4CA04202D00A4CA04208D10324F7
:1021C000A402A3434C69A4001C438B699B002343D6
:1021D0004360856149688163026270BD002C0140E3
:1021E000004401400048014070B5026AFF230133FA
:1021F0009A430262046A4368C2697025AA4392083E
:102200000D68920015430122520294438A6812021B
:102210002243104CA04207D1C414A243CC6824022C
:1022200022430615B24305E00B4CA04202D00B4CF2
:10223000A04208D103242403A3434C6924011C4376
:102240008B691B0123434360C5614968C163026216
:1022500070BD0000002C01400044014000480140D6
:1022600030B5026A01231B039A430262056A426881
:10227000C36973242402A3430C6824021C43012372
:102280005B039D438B681B032B430A4DA84205D07B
:10229000094DA84202D0094DA84205D10125AD0340
:1022A000AA434D69AD012A434260C4614968016493
:1022B000036230BD002C0140004401400048014051
:1022C00010B585229200125852689047002010BD28
:1022D000134610B50A46002100F081F9002010BD18
:1022E000134610B50A46002100F024FA002010BD64
:1022F00010B50446802100F002FA0021204600F0CB
:10230000FEF910BD10B5FF210522F5310A5000235A
:102310001A46194600F063F9002010BD10B5FF23DE
:102320000224F5331C5082611346C2610A46002123
:1023300000F000FA002010BD10B5FF210422F53195
:102340000A5000231A46194600F0F4F9002010BD87
:10235000F8B50D4604464988FF300A0AFF300230BE
:10236000130000F067FB08500509165050454D500A
:102370000069237C026817E0217C0226406900295D
:1023800005D0C16A684688470146467047E0816AC1
:10239000F8E7CAB2130000F04DFB06040B0F161A43
:1023A0001E240069237C426869461846904716E05F
:1023B0000069227C836802E00069227CC368694668
:1023C000104698470BE00069227C0369F7E7006933
:1023D000227C4369F3E70069227C8369EFE70146C9
:1023E0001DE04069C9B2836B6A4620469847F6E70C
:1023F000217C002907D14069416B68468847EEE798
:10240000217C002904D029462046FFF771FFF8BD42
:102410004069016B6846884707220146427068465A
:1024200000880028F3D0EA88002AF0D0824200D940
:102430000246684602802046FFF770FFF8BD10B5DF
:10244000FF30FF3002300024006AFEF74FF800280A
:1024500006D0012801D0022801D0022400E0012486
:10246000204610BDFEB50446FF30E51DE130FF35C6
:10247000FA3513460190002908D068694269002A9C
:1024800049D00198007F032843D044E02646FF3618
:1024900081362046716F1430022934D1C2688168B8
:1024A0000092914207D9891A81608AB21946204662
:1024B000FFF716FF13E0406811460746FDF736FEAA
:1024C000002913D10098874210D3B06F87420DD2F4
:1024D000002211462046FFF703FF0020B0670023CB
:1024E0001A461946204600F07AF80CE06869C1687F
:1024F000002905D00198007F032801D12046884794
:102500002046FFF7FFFE2878012804D1002028701C
:1025100001E0204690470020FEBD70B50546FF351E
:10252000E1352B46203316460446002907D058696A
:102530008269002A29D0287F032824D025E0FF21A2
:10254000F531E01D0959FD3003291ED18268C168AB
:102550008A420BD9511A8160C068814200D301467A
:102560008AB231462046FFF7B3FE0EE05869016992
:10257000002904D0287F032801D12046884720461F
:10258000FFF7DAFE01E020469047002070BDFF30E3
:10259000CA09FF3049060230490E1C23006A59431C
:1025A0000818002A01D0203001E0FF300130807A85
:1025B000704770B5FF301D46FF30023013460024CF
:1025C000006A2A46FDF7ECFF002806D0012801D05A
:1025D000022801D0022400E00124204670BD10B57D
:1025E000FF30FF3002300024006AFEF72BF900288C
:1025F00006D0012801D0022801D0022400E00124E5
:10260000204610BD70B50022044640231146FFF756
:10261000D0FF4025FF20113005512B46002280219C
:102620002046FFF7C6FFFF200121FD30256201553E
:10263000E01DFF30FA308169002904D0406921791A
:10264000426820469047002070BDFF30E130417F56
:1026500001770020704710B5FF21FD31095C032987
:1026600006D1852189000958C969002900D0884709
:10267000002010BD01740020704710B5FF30FF30FE
:1026800002300024006AFEF7CFFA002806D00128A5
:1026900001D0022801D0022400E00124204610BD10
:1026A00070B504464120C0002018054600F055F8DA
:1026B0002146FF3181310122084680304A67C289B4
:1026C0008A67007AC106C90E0AD001290DD00229F5
:1026D00010D0C109C901204600F011F8002070BDDA
:1026E0002946204600F094F8F8E72946204600F0F5
:1026F0007BF9F3E72946204600F001F9EEE710B533
:10270000FF30FF3002300024006AFEF71BF900287A
:1027100006D0012801D0022801D0022400E00124C3
:10272000204610BDFF30E130017F41770421017761
:102730000020704710B5FF30FF3002300024006ADF
:10274000FEF74AF9002806D0012801D0022801D05E
:10275000022400E00124204610BD0A7802704A7865
:102760004270CB788A781B02D21842804B790A7962
:102770001B02D21882808A79C97909025118C18056
:10278000704710B58522920012580224002A04D006
:1027900012689047002800D10024204610BD000098
:1027A00070B50E468978194D04462970012904D95F
:1027B00031462046FFF79CFD70BD2046FF30E130DA
:1027C000027F022A15D0032AF2D1002917D06068AF
:1027D00088420AD0C1B22046FFF772FD29786160B5
:1027E0002046FFF7CEFF0228E2D02046FFF7A4FDE7
:1027F00070BD0029F9D0032261600277F0E7022260
:10280000027720466160FFF75BFDEEE70C000020D9
:10281000F8B500220092C61DFF364C781746FA36EE
:1028200032460125203A230000F004F90A3C5641C3
:1028300050410906412B2841FFF78AFD5DE004461F
:102840008888002818D1C888002815D188781746AC
:102850004606107F760E03280ED0BE7731462046FE
:10286000FFF70BFF2046FFF767FD002E02D0022086
:10287000387742E03D7740E0204618E0FFF790FFD0
:102880003BE0CB88012B12D1127F022A02D0032A0F
:102890000DD104E0012201460831876013E00122D6
:1028A000011D10E0127F022A04D0032A02D0FFF794
:1028B0001FFD22E0C5607168002901D00321C160BD
:1028C000014602220C31FFF729FD16E00446488834
:1028D000012812D1756009E00446107F022801D05A
:1028E0000328C9D14888012807D1776070698268B8
:1028F000204690472046FFF71FFD0098F8BDF8B529
:1029000004460D462878E61D4006FF360027097963
:10291000800FFA36012809D06A7830462038002A1C
:1029200038D0012A1ED0032A3DD106E0706929461D
:102930008268204690470020F8BD007F022817D00B
:1029400003282CD16888002806D1002904D08029CA
:1029500002D02046FFF7D3FE7069294682682046E0
:10296000904713E0007F022802D0032817D104E02B
:10297000002918D080291AD115E06888002812D1C2
:10298000480603D02046FFF75AFDE5E72046FFF74B
:10299000D3FC08E0007F022807D003280BD029468B
:1029A0002046FFF7A5FC3846F8BD4806FBD0204678
:1029B000FFF7A5FEF7E7C80904D04806400D051942
:1029C000143504E04806400D0519FF35053520464D
:1029D000FFF7DDFD002800D00120286002222946F3
:1029E0002046FFF79BFCDEE770B50446FF30E13080
:1029F000007F0D4603280FD1287901280CD88520A7
:102A000080000059826820469047E888002806D157
:102A10002046FFF791FC02E02046FFF769FC00200A
:102A200070BD000010B50248FEF74EF810BD000062
:102A30001005002030B47446641E2578641CAB4237
:102A400000D21D46635D5B00E31830BC184702E00E
:102A500008C8121F08C1002AFAD170477047002029
:102A600001E001C1121F002AFBD1704708B5FDF734
:102A7000BFFCFFF779FAFEF787FFFFF72DF8FEF7A7
:102A8000E9FF00212848FEF7C0FD04212648FEF793
:102A9000BCFD08212448FEF739FF0C212248FEF72F
:102AA00035FF21482149026851620268091FD1633C
:102AB0001E490068091D01640F20FDF7EFFC1A484C
:102AC0004038FEF749FD0D20FDF7E8FC30BF184FF8
:102AD000184D194C194E2888B84223D31248403853
:102AE000FEF7B6FE1048FEF7B3FE002028800E4821
:102AF0004038FEF7ADFE0C48FEF7AAFE0920012281
:102B00000321C006FDF760FCE169012000070143D5
:102B1000E161E169014000913068042108433060BF
:102B2000FEF7B8F830BFD6E7B4000020F53F00004C
:102B300050C3000000000020001002400070004060
:102B4000000000000000000001020304060708095D
:102B5000702B000800000020100000004E2A000822
:102B6000802B000810000020200B00005E2A0008C7
:102B7000000000000000000000127A0000000000C9
:04000005080000C12E
:00000001FF
