:020000040800F2
:1000000088160020D5000008952000083B1E000837
:1000100000000000000000000000000000000000E0
:100020000000000000000000000000008B24000819
:100030000000000000000000652400088D24000876
:100040000501000805010008050100080501000878
:100050000501000805010008190200080501000853
:100060000501000805010008050100080501000858
:1000700005010008A125000805010008B1250008B8
:100080000501000800000000000000000501000854
:100090000000000005010008050100080501000836
:1000A000000000006924000805010008050100089F
:1000B0000501000800000000050100086134000887
:1000C0000348854600F048F800480047AD34000872
:1000D000881600200C4880F308880C480168090E37
:1000E0000B4A914205D10B480B4901600B480C4962
:1000F00001600C4880470C480047FEE7FEE7FEE73A
:10010000FEE7FEE7FEE7000088160020040000007E
:100110001F00000018100240010000000000014014
:100120000000000045250008C100000830B50B465E
:10013000014600202022012409E00D46D5409D42C1
:1001400005D31D469540491B254695404019154647
:10015000521E002DF1DC30BD064C0125064E05E097
:10016000E36807CC2B430C3C98471034B442F7D3D8
:10017000FFF7AAFF98350008B835000870B58C184D
:100180000578401C6B075B0F01D10378401C2A11D6
:1001900006D10278401C03E006780E70401C491C12
:1001A0005B1EF9D12B0705D40023521E0DD40B7012
:1001B000491CFAE70378401CCB1A921C03E01D7817
:1001C0000D70491C5B1C521EF9D5A142D8D30020EA
:1001D00070BD0020704700207047000010B500225D
:1001E0000449054802F005FC0449034802F0F7FB06
:1001F000002010BD9C0E002050020020B40A0020F8
:1002000010B50146034802F0EAFB024802F0C1FBC8
:10021000002010BD5002002010B5042000F08CF822
:1002200010BD70B50024014620314A78022A03D05F
:1002300004218163012416E0026813680E25AB4394
:100240001360026813685B085B0013600122056C91
:100250001346AB40C56B6B604A7000220A70416B5D
:10026000002900D08847204670BD0000F0B500236B
:1002700053E001229A4014460A404DD006685F00C0
:100280000325BD40AE43AC460660DD08AD002D1829
:100290002E6AAE465D07EF0E0F25BD40AE43754694
:1002A0002E6286686546AE4386604568A543456014
:1002B000C4686546AC43C4609D081A4CAD002D1956
:1002C000AF689C07260F0F24B440A4463C40092782
:1002D000FF06B84201D100270AE0134FB84201D10E
:1002E000012705E0114FB84201D1022700E00527A0
:1002F000B740A74210D1AE686446A643AE600C4C2E
:10030000256895432560656895436560A5689543B4
:10031000A560E5689543E5605B1C0A46DA40A8D114
:10032000F0BD000000000140000400480008004843
:10033000000401407047000010B504494A690242B8
:1003400002D04861FFF7F6FF10BD00000004014035
:10035000F8B5002389E001249C402A46A4462240A7
:100360007ED04C68022C01D0122C0CD1DC08A400E9
:1003700027183C6A5D07ED0E0F26AE40B4430E69A8
:10038000AE4026433E6205685E000324B4400F7908
:10039000A543BF07BF0FB7402F4307604D68012D2E
:1003A00005D0022D03D0112D01D0122D0ED185685C
:1003B000CF68A543B7402F43876047686546AF4382
:1003C0000D79ED06ED0F9D403D434560C568A543A1
:1003D0008C68B4402C43C4604C68E40044D5264C7F
:1003E000A56901263543A561A4699D0834400094A0
:1003F000224CAD002F19BC689D072E0F0F25B5406C
:10040000AC430925ED06A84201D100250AE01C4DA8
:10041000A84201D1012505E01A4DA84201D10225CB
:1004200000E00525B5402543BD60174C25684E68A2
:100430009543F60300D51543256065684E689543DE
:10044000B60300D515436560A5684E689543F6026E
:1004500000D51543A560E5684E689543B60200E0F7
:1004600002E000D51543E5605B1C0A681546DA40DA
:1004700000D070E7F8BD000000100240000001400D
:10048000000400480008004800040140002A01D090
:1004900081617047816270470148006870470000C1
:1004A0004C00002002480168491C016070470000B0
:1004B0004C00002010B5064801681022114301606D
:1004C000002000F007F800F017F8002010BD000031
:1004D0000020024010B5044600F0F0FE7D21C90066
:1004E000FFF724FE01F020FA00222146501E00F002
:1004F00041F8002010BD000008B5124881690122B2
:1005000011438161816911400091C26901040A436C
:10051000C261C0690022084000901146501F00F0DF
:1005200029F800221146901E00F024F800221146FE
:10053000501E00F01FF804480168102211430160AA
:1005400008BD00000010024000000140C106C90EB5
:1005500001208840014908607047000080E100E008
:10056000C106C90E0120884001490860704700009B
:1005700000E100E010B501F08FFD10BD10B50C06D4
:1005800006D54906490E1C2461430818283004E0AA
:100590001C2461430818FF30093099B2002A06D0A4
:1005A00001228272C180190C0181002010BD00223D
:1005B00082728180F9E71C224A43121810B5FF307D
:1005C000FF300230926BC06902F0EBFB10BD1C22C1
:1005D0004A43121810B5FF30FF32FF3001320230AB
:1005E0009269C06902F038FC10BD0000F0B54A06FF
:1005F000520E13461C256A43CC091218002C01D058
:10060000283201E0FF32093204461370C909FF3471
:100610005170E134217A01293DD001212172957A6E
:10062000494B002D4949557837D0002D056816787B
:10063000AC465BD0B600AD5B6F0404D5444F0D40B3
:100640003D436746BD5305681678AC46B600AD5BC2
:100650006F0605D53C4F0D4040373D436746BD53BF
:1006600015780668AF00F55B0D4039490D43F55329
:10067000364F117830373D40066889001D4375526A
:100680001178334A00688900F13A15401D434552FC
:1006900000202072F0BD0220F0BD002D0568167804
:1006A000AC4610D0B600AD5B6F0605D50D402649AF
:1006B00040310D4361468D5305681078234A81000F
:1006C000685A30320EE0B600AD5B6F0404D50D40C1
:1006D0001F490D4361468D53056810781C4A8100FF
:1006E000685AF13A104018436852D1E7B600AD5B42
:1006F0006F0404D5164F0D403D436746BD53056852
:100700001678AC46B600AD5B6F0605D50E4F0D40B2
:1007100040373D436746BD5315780768AE00BD5B63
:100720000D40094940310D43BD53094F1678F13F43
:100730003D400168B6001D438D531178034A89007E
:1007400000683032A1E70000808000008F8F000039
:1007500080C00000F0B54B06CA095B0E002A04D029
:100760001C225A431218283204E01C224A43121851
:10077000FF3209320024947013700346C909FF3315
:100780005170E133197A01291AD001211972517877
:100790001A4C00291178066814D08D00715B4F0641
:1007A00003D52140164C21437153117800688A000B
:1007B000124C815A3034214010246140202414E02E
:1007C0000220F0BD8D00715B4F0403D521400D4C1C
:1007D00021437153117800688A000A4C815AF13C18
:1007E000214001242403614064006140044C403CEA
:1007F0002143815200201872F0BD00008F8F00004D
:10080000C080000080C000004906490E1C225143F0
:100810000818FF300130008C80B27047F0B54D06EB
:100820006D0E2E461C246543CF092C18002F01D0D5
:10083000283401E0FF3409342670C909617001468B
:10084000FF31E260E131E3708C46097A01290DD075
:10085000012261460A72E2789349002A08D0012AEF
:1008600020D0022A0DD0032A25D111E00220F0BDAC
:10087000237802689B00D55A0D40FF35FF350235BD
:1008800004E0237802689B00D55A0D40D55212E04F
:100890002278036892009D5A0D400321490269188D
:1008A000995208E0237802689B00D55A0D40012137
:1008B00089026918D15226780768B5007B5B7B49AD
:1008C0007B4A0B40134333437B53A57A002D53D00F
:1008D0002578784E0B400768AD0033437B53E3889F
:1008E00050265D0803686D00F65AF6182378DF007D
:1008F00001239B02FB18F552238950265D080368EB
:100900006D00F65AF6182378DF005311FB18F552E4
:1009100063780768002B237875D09D007B5B5E04AD
:1009200003D5654E0B4033437B53237807689D0006
:100930007B5B5E0604D55E4E0B40403633437B53F3
:10094000237805689E00AB5B0B405B490B43AB53C0
:10095000564E2178303633400568890013436B5278
:100960002178554C00688900F13C234013434352E1
:10097000002061460872F0BD6378002BA3881FD069
:100980005D0803685026F65A6D00F6182378DF00DC
:1009900001239B02FB18F552237807689D007B5BBF
:1009A0005E0604D50B40424940310B437B5301683E
:1009B00020783E4C8300C85A30342040202440E048
:1009C0005D0803685026F65A6D00F6182378DF009C
:1009D0003A4BFB18F55203685025ED5A374EEB1889
:1009E0002578B61CED00AD195E19E3683E2B0BD9D6
:1009F000DD022D0CDB0601D16D1EADB2AB0201256F
:100A0000ED032B4307E020E0DD032D0CDB0701D0D5
:100A10006D1CADB2AB023380237807689D007B5B11
:100A20005E0403D50B4024490B437B5301682078B7
:100A3000214C8300C85AF13C20400124240360402B
:100A4000640060401043C85292E79D007B5B5E04E7
:100A500003D5194E0B4033437B53237807689D0021
:100A60007B5B5E0604D5124E0B40403633437B530E
:100A7000237805689E00AB5B0B400D4940310B436A
:100A8000AB530D4E2178F13E3340012636037340BF
:100A9000760073400568890013436B522178034C3C
:100AA00089000068303460E78F8900008F8F000074
:100AB000808000008081000080C0000004040000ED
:100AC000F0B54D066D0E1C246C432418FF34093418
:100AD000636122610022A26162702570E5681E4692
:100AE000AB4201D92B46F21A6261A67A490601226D
:100AF000890DD203002E2F4D06680CD05027BF5B06
:100B0000BE192F1FC91976183E2B15D9D902090C09
:100B1000DF060CD00DE05027BF5B4919BE197518D0
:100B200020E08902114300E08902298032E0491E59
:100B300089B28902114306E0D903090CDF0701D00D
:100B4000491C89B2890231806178002902D00129CB
:100B500018D01FE001685026765A71182678F600E2
:100B600075194D193E2B06D9D902090CDB06D8D1CF
:100B7000491E89B2D5E7D903090CDA07D4D0491C3C
:100B800089B2D1E701685022525A51182278D20016
:100B900052198B5201682078074B8200885A1840FE
:100BA00001231B0358405B005840044B18438852F4
:100BB0000020F0BD060400008FBF00008080000010
:100BC000F0B50246FF32E132137A012B0BD001243B
:100BD0004F06CB097F0E1472002B06D01C237B43DB
:100BE0001B18283306E00220F0BD1C234B431B18C2
:100BF000FF3309339C701F70CE095E7001242403FB
:100C00001025114B002F0BD04906C90D002E10D016
:100C100004680E4E605A304068401843605210E03D
:100C200001680B4E088830406040684018430880D7
:100C300007E00568064E685A303E30406040184371
:100C4000685200201072F0BD80800000BF8F00004D
:100C5000BFBF0000F0B506461D464806400E1C23E7
:100C600043439C19E563A2630022226401232834D4
:100C700063702070E0682B46854203D90546181A38
:100C8000606100E06261A07A2A4F002810D02278CB
:100C900030689200825C49065206890D002A16DAF5
:100CA0005022125A10183A1D89184552228914E010
:100CB000ABB2A2882169306801F0C1FB30685021D5
:100CC000095A08182178C900C919455220E0502254
:100CD000125A1018C9194552E288ABB2216930681E
:100CE00001F0ADFB61781448002902D0012907D03A
:100CF0000EE0217832688B00D15A01400F4805E0A0
:100D0000217832688B00D15A01400D480143D152FD
:100D1000207831688200084B885A303318401023FD
:100D2000584020235840054B403B18438852002030
:100D3000F0BD0000020400008F8F0000C0800000A2
:100D400080C0000070B50446006840308088C00B49
:100D500002D0204601F0C2F9206840308188490560
:100D60000AD58188334A11408180204600F0DAF8A4
:100D70000021204600F000F92068403081884904B5
:100D800003D581882C4A11408180206840308188B9
:100D9000890403D58188294A114081802068403028
:100DA00081880425C904002910DA0188A94301803B
:100DB000BD202168000240310880204600F0BEF8C6
:100DC0002068403081881E4A114081802068403070
:100DD0008188090517D581881A4A114081802068C9
:100DE000403001880822114301802068403001888A
:100DF00029430180206840308088C043C00402D568
:100E0000204600F0E3F8206840308188890506D547
:100E100081880D4A11408180204600F0A5F82068A5
:100E200040308188C90503D58188084A11408180F6
:100E300070BD0000FFFB0000FFBF0000FFDF0000EF
:100E4000FFEF0000FFF70000FFFD0000FFFE0000C5
:100E5000F8B500270446002807D02646FF36E136BD
:100E6000707A0025002802D005E00120F8BD357217
:100E7000204600F03BF80320707201210BE01C209B
:100E8000784302191046203041720772C5725563CB
:100E900095637F1CD5636068B842F0D800200BE0F2
:100EA0001C2242431219FF32013255721072D57260
:100EB00055619561401CD56162688242F0D8206816
:100EC00040300180206840300580206840308580B7
:100ED000206840300582BF20226800024032108026
:100EE0002034257171720020F8BD000008B500683B
:100EF0000A49884210D10A48C2690121C9050A433A
:100F0000C261C06900220840009011461F20FFF70F
:100F100031FB1F20FFF724FB08BD0000005C0040F0
:100F20000010024010B5C41DFF34FA340121E069FD
:100F300002F097F8E06902F05CF810BD10B50446C5
:100F40008069002806D007480169062291430161A3
:100F500001F0A2FAFF34FF340234E06902F06CF8C9
:100F600010BD000000ED00E0FF3010B5FF30023092
:100F7000C06902F067F810BD0246FF32E132137A11
:100F8000012B08D001231372002906D020300171F3
:100F900000201072704702207047006880214030A6
:100FA0008181F5E710B5872189000A580146FF3194
:100FB000ED31104602F06BF810BD00684030018B37
:100FC0000122D203114301830020704710B504466B
:100FD000FF30FF300230C06902F0AEF8A06900288F
:100FE00004D00348016906221143016110BD0000CD
:100FF00000ED00E005480168022211430160044849
:10100000016904221143016130BF70470070004044
:1010100000ED00E00F490B69CA0313430B610B6934
:1010200093430B6106C811430268114342680A43A7
:1010300001890B04084913434B600A683F231B02D4
:10104000C0689A43000202430A60086860221043A5
:101050000860704700100240006C0040F8B504467C
:1010600000683E4DC00352D5E8690026C00007D491
:10107000E96928040143E961E96901400126009119
:1010800037480168C90510D4016882151143016011
:10109000FFF702FA074604E0FFF7FEF9C01B6428D9
:1010A00024D82F480068C005F6D5286A03273F02D8
:1010B000384020D06168394081421CD0286A2A6AB1
:1010C000B843012109040A432A622A6A8A432A6230
:1010D0002862C0070FD0FFF7DFF9009008E0FFF7A4
:1010E000DBF90099411A1F48814201D90320F8BD5C
:1010F000286A8007F3D5286A6168B84308432862E4
:10110000002E04D0E969012000078143E9612078BD
:10111000C00705D0286BA1688008800008432863B9
:101120002078800605D5286B10218843E1680843A4
:1011300028632068800305D5286B80218843616976
:10114000084328632088400505D5286B4021884343
:101150002169084328630020F8BD00000010024008
:101160000070004088130000F8B505464E480E4652
:101170000068C007C00FB0420AD24B480168490856
:101180004900314301600068C007C00FB04270D110
:101190002878464C800705D56068F0218843A96807
:1011A000084360602878C00753D06868012817D0CA
:1011B000022818D0032819D021688907002958DA95
:1011C00061688908890001436160FFF765F9696812
:1011D0000746012913D002291DD0032927D034E066
:1011E00021688903EAE721688901E7E7616BC903A0
:1011F000E4E7FFF751F9C11B2D48814223D860680D
:101200000007800F0128F4D123E0FFF745F9C11B47
:101210002748814217D860680007800F0228F4D160
:1012200017E0FFF739F9C11B214881420BD86068EC
:101230000007800F0328F4D10BE0FFF72DF9C11B45
:101240001B48814201D90320F8BD60680007800F68
:10125000F3D115480168C907C90FB1420BD901681C
:1012600049084900314301600068C007C00FB0421F
:1012700001D00120F8BD2878400706D56068072115
:1012800009028843E9680843606000F01DF861685E
:10129000084A0906090F515CC84007490860002048
:1012A000FFF718F90020F8BD0020024000100240AE
:1012B00088130000883500085000002001480068AD
:1012C000704700005000002030B516A30FCB89B046
:1012D0006C460FC417A30FCB0FC41A494A680C20E1
:1012E000144604401848042C05D0184B082C04D090
:1012F0000C2C00D1184609B030BD9402240F6D4665
:101300002C5DC96A04AD0907090FD203695C920F0D
:10131000022A02D0032A00D11846FEF707FF6043D5
:10132000E9E7000002030405060708090A0B0C0D93
:101330000E0F10100102030405060708090A0B0C22
:101340000D0E0F100010024000127A00006CDC023B
:10135000FEB504460078F04EF04DC00748D06868EE
:101360000007800F01281FD068680007800F02283F
:1013700004D16868C003800F022815D06168012974
:1013800019D001208004002901D0052917D029682F
:10139000B1432960296881432960606800281BD017
:1013A000FFF77AF8074613E02868800320D56068C5
:1013B000002876D01CE0286830432860EDE72968D3
:1013C00001432960F7E7FFF767F8C01B642869D875
:1013D00028688003F7D50BE0FFF75EF8074604E0C6
:1013E000FFF75AF8C01B6428F1D828688003F7D4A7
:1013F000207880073ED568680007800F14D06868A1
:101400000007800F022804D16868C003800F0128FC
:101410000AD0E068002828681DD001210843286010
:10142000FFF73AF807460BE0286880070BD5E0681D
:10143000012836D107E0FFF72FF8C01B0228C6D8D5
:1014400028688007F7D52868F82188432169C900F2
:10145000084328600EE0400840002860FFF71CF8B1
:10146000074604E0FFF718F8C01B0228AFD8286829
:101470008007F7D42078000724D5E0690028686A3F
:1014800011D0012108436862FFF706F8074604E01F
:10149000FFF702F8C01B022899D8686A8007F7D5C1
:1014A00010E036E1D1E0400840006862FEF7F4FF4A
:1014B000074604E0FEF7F0FFC01B022887D8686AE1
:1014C0008007F7D4207804274007002861DA00203D
:1014D0000190E869C00008D4E969B8060143E961F0
:1014E000E96901400120009101908D480168C9051A
:1014F00011D40168821511430160FEF7CDFF009001
:1015000005E0FEF7C9FF0099401A642897D884487F
:101510000068C005F5D5A06801280AD0002801D0D0
:10152000052811D0286A400840002862286AB8437C
:1015300002E0286A012108432862A068002812D02E
:10154000FEF7AAFF00900AE0286A38432862F0E715
:10155000FEF7A2FF0099411A7248814275D8286AA5
:101560008007F5D50DE0FEF797FF009006E0FEF747
:1015700093FF0099411A6B48814266D8286A800718
:10158000F5D40198002804D0E969012000078143BF
:10159000E9612078C00635D5606901280CD0401D6E
:1015A000686B24D038436863686B40084000686308
:1015B000FEF772FF074622E0686B38436863686B8A
:1015C000012108436863FEF767FF074604E0FEF762
:1015D00063FFC01B022838D8686B8007F7D5686B9B
:1015E000F8218843A169C900084368630AE0B84349
:1015F0006863F4E7FEF750FFC01B022825D8686B2C
:101600008007F7D42078800637D568680007800FF8
:10161000032813D068680007800F022804D1686887
:10162000C003800F032809D0206A0028686B16D0F9
:1016300030436863FEF730FF06460CE0686BC0037A
:101640001BD5206A012864D117E05BE0FEF724FF78
:10165000801B022856D8686BC003F7D50DE0B04355
:101660006863FEF719FF064604E0FEF715FF801BCE
:10167000022847D8686BC003F7D4606A002846D0B8
:1016800069680907890F022943D001263606022816
:10169000286805D0B0432860FEF7FEFE044633E01C
:1016A000B0432860FEF7F8FE074604E0FEF7F4FEBC
:1016B000C01B022826D828688001F7D4E86A216B6D
:1016C000000900010843E862A16AE06A084369680A
:1016D0007B22D20391430843686028683043286026
:1016E000FEF7DAFE044604E0FEF7D6FE001B0228F1
:1016F00008D828688001F7D509E0FEF7CDFE001B69
:10170000022801D90320FEBD28688001F5D40020FD
:10171000FEBD0120FEBD00000000010000100240DF
:10172000007000408813000070470000F8B50446C0
:101730000068426881684B0605D4CB0703D0530686
:1017400001D5E16C04E08B0705D5130603D5216DA7
:1017500020468847F8BDFF2361331942FAD093062B
:10176000F8D523464D064033002D09DA5D7F032D61
:101770003CD0256E042635432566C56885680095EE
:101780008E060125002E08DA266E2E432666866810
:10179000009606684027BE430660C80506D5206E41
:1017A000082108432066206880680090206E002889
:1017B000D0D020684168E026B14341605D77900752
:1017C00018D020684168890889004160A06D0B4DE0
:1017D000002803D04563A06DFEF723FD606D00284F
:1017E000B8D04563606DFEF71CFDF8BDC168806828
:1017F0000090F8BD2046FFF797FFF8BD7924000858
:10180000F8B5040007D0002625464035A662687F5B
:10181000002802D005E00120F8BD2E77204600F018
:101820004BF802236B7720680168402291430160E6
:101830000721E0680902884201D9002201E0012263
:1018400012030F273F02B84202D0884200D0A6629E
:10185000276B002F05D1884201D9236301E00120C5
:101860002063A168606863690843216919430843DC
:101870000123A1695B0219400843E1690843216A19
:101880000843A16A084321680860616B606AA36924
:1018900008431B0C0427E1683B40194308432168B7
:1018A000104348602068C1697A029143C16126668D
:1018B000012068770020F8BD00B50068114987B0A5
:1018C00088421DD11048826981140A43826180696F
:1018D00008400590E02000900220019000210320A4
:1018E00003900291049109206946C006FEF730FD7D
:1018F000002211461920FEF73DFE1920FEF730FEAA
:1019000007B000BD0030014000100240042204492D
:101910000428086902D09043086170471043FBE730
:1019200000E000E070470000094910B5401E884201
:1019300001D9012010BD074C60610321081F00F090
:10194000ABFB0020A06107202061002010BD00003B
:10195000FFFFFF0000E000E010B5FFF7E3FF10BD60
:101960007047704770B5034620331A7F012A27D08D
:1019700001241C7702225A770326CA683602B24332
:101980008E6800253243A602B2434E680068324397
:10199000E602B2430E6832432603B2430E69324375
:1019A0006603B2434E6989693243A603B2430A43D0
:1019B000E603B2430A4342645C771D77002070BDA2
:1019C000022070BD70B502462032137F012B1BD060
:1019D0000123137702245477046865687026B543A1
:1019E0006560046865680E68354365600468A568CD
:1019F0008026B543A5600068846849680C4384600C
:101A000053770020107770BD022070BD0268D36844
:101A100001210B43D360006802680A430260002082
:101A200070470000F8B50D46040005D02646203664
:101A3000707F002802D006E00120F8BD002030773A
:101A4000204600F03BF80220707720688168C908C2
:101A5000C9008160211D206800F0B2FD22689068F5
:101A60009369116A2F680743BC461248AF69034067
:101A70003F021F43A868104B3843EF6918403F02EC
:101A80000743EB6828693B432F6A00013F03384353
:101A90001843AA2399436B686D6967462D010D436E
:101AA0002B4397602168886120680362012070776A
:101AB0000020F8BDFCFCFFFF0303FFFF704770B57B
:101AC000044602250068002910D00426042915D0F8
:101AD0000122002100F0B6FD01220421206800F05F
:101AE000B1FD2068C1682943C1600BE001220021DB
:101AF00000F0A8FD2068C168294306E00122042106
:101B000000F0A0FD2068C1683143C1602068016811
:101B1000012211430160002070BD704770B504467A
:101B2000006801690025C9438907002915DBC168E0
:101B3000C943890711D4E91E01610120207720687B
:101B400080698007204602D0FFF7E7FF04E000F03D
:101B5000BEF8204600F06EF9257720680169C94378
:101B6000490717D4C168C943490713D40421C9439D
:101B7000016102202077206880698005800F20465F
:101B800002D0FFF7CAFF04E000F0A1F8204600F001
:101B900051F9257720680169C943090716D4C1683E
:101BA000C943090712D40821C943016104202077E1
:101BB0002068C0698007204602D0FFF7AEFF04E02E
:101BC00000F085F8204600F035F925772068016996
:101BD000C943C90617D4C168C943C90613D4102123
:101BE000C9430161082020772068C0698005800F03
:101BF000204602D0FFF791FF04E000F068F820468D
:101C000000F018F9257720680169C943C90708D190
:101C1000C168C943C90704D1891E0161204600F08B
:101C20000AF920680169C943090609D4C168C94392
:101C3000090605D48021C94301612046FFF790FEC3
:101C400020680169C943490609D4C168C9434906E6
:101C500005D44021C9430161204600F0EDF8206819
:101C60000169C943890609D4C168C943890605D4F5
:101C70002021C94301612046FFF773FE70BD70B596
:101C800004462034237F012B0CD001252577022325
:101C90006377002A08D0042A0AD0082A0CD00C2A1C
:101CA00011D10DE0022070BD006800F0D7FC0AE001
:101CB000006800F00FFD06E0006800F045FD02E05E
:101CC000006800F07DFD65770020207770BD7047CB
:101CD00070B5040005D025462035687F002802D065
:101CE00006E0012070BD00202877204600F02CF887
:101CF00002206877211D206800F062FC01206877CF
:101D0000002070BD10B50E4A01680E48914205D101
:101D10008169C214914381610D200DE00122920777
:101D200091420BD1C16949084900C16109200321D1
:101D3000C006FEF79BFA0F20FEF708FC10BD00005E
:101D4000002C01400010024000B51B4A01681B48EE
:101D500087B091420DD18269C1140A4382618069C2
:101D600000220840059011460D20FEF703FC0D20CF
:101D70001DE00122920791421BD1C26901210A4351
:101D8000C261C069029108400590032000900220C2
:101D9000019000210490039109206946C006FEF7D6
:101DA000D7FA002211460F20FEF7E4FB0F20FEF7C2
:101DB000D7FB07B000BD0000002C0140001002401E
:101DC00010B502680446002906D0042907D0082966
:101DD00023D00C2907D123E0D068022301E0D0688A
:101DE00004231843D0600122206800F02BFC0E4928
:101DF0002068884205D00D49884202D00C498842AB
:101E000004D1416C0122D20311434164206801686E
:101E1000012211430160002010BDD0680823E0E7D3
:101E2000D0681023DDE70000002C01400044014091
:101E300000480140704770477047FEE7F0B52E48F4
:101E400087B04269012189040A43426142690A401C
:101E50000592426909010A43426142690A400592BA
:101E6000426949110A4342614069FF240840234EF8
:101E700003340590002221463046FEF707FB204F31
:101E8000002203213846FEF701FB09200022182119
:101E9000C006FEF7FBFA0094002411250195029478
:101EA000694630460394FEF753FA032000900294EB
:101EB0006946019503943846FEF74AFA04200090DB
:101EC00010480190092069460294C006FEF740FAC6
:101ED0001820009009200294694601950394C006D9
:101EE000FEF736FA002211460620FEF743FB0620D5
:101EF000FEF736FB07B0F0BD0010024000040048BA
:101F0000001400480000111010B510480E4901607F
:101F1000FF2105314160002103228160120201612D
:101F2000C2604161C161012201625202416282616B
:101F300081620722C262016308214163FFF760FCEE
:101F4000002800D0FEE710BD003001406C010020E9
:101F500010B51F4890B01D4901600024FF21846026
:101F600041600461F9214461C16080218161FFF712
:101F7000AFFE002800D0FEE70E940EA914480F947F
:101F8000FFF720FD002800D0FEE7009401940294A2
:101F9000039404940594002269460D480694FFF7C3
:101FA0006EFE002800D0FEE701200794400308944D
:101FB0000C9009940A940B9407A90D940448FFF718
:101FC000D1FC002800D0FEE710B010BD002C01406D
:101FD000D001002010B501211F4892B089070024CC
:101FE00012C0046084601D49046141600838FFF735
:101FF0006FFE002800D0FEE70120009001940290BF
:102000000394069004940594079469460894124832
:10201000FFF708FD002800D0FEE7109410A90E4835
:102020001194FFF7CFFC002800D0FEE709940A9432
:102030000B94082209A908480D94FFF720FE0028F8
:1020400000D0FEE70C2209A90348FFF718FE00287C
:1020500000D0FEE712B010BD10020020FFFF00000C
:1020600010B500220749084800F05CFE0749064801
:1020700001F091F80649044800F0A7FC024801F07D
:10208000DBF810BD080000205002002034010020C1
:102090003C000020704700008307FF22DB0E9A40BF
:1020A0008907090E994000280BDA0007000F08384D
:1020B000830808489B001818C36993430B43C36106
:1020C0007047830804489B001B1818689043084316
:1020D0001860704700ED00E000E400E0F0B585B066
:1020E00004460020694688802646203678E19A8991
:1020F00017073F0F26D0B9000291425A9A8099885B
:1021000009047DD5BE490A400299425238461C2135
:1021100048430519FF350935A87A0028206870D092
:1021200029788A00825A52046CD55022125ACB0068
:10213000B44912185918515A8905890D00917DD05A
:10214000EA88BDE09A89D20627D40188AE4A25469E
:102150001140018020685021095A28350818297833
:10216000CA00A8495118405A8005800D2064A16B0F
:102170000818A06300212046FEF71DFA30790028D8
:10218000B4D068690028B1D1307980210843216832
:10219000403188810020307122E12546FF350288D8
:1021A00009359A809B881B0519D5098A0918287852
:1021B000C2009448001D1018085A294683059B0D3B
:1021C000AB61AA88E431206800F024F920688C4AC9
:1021D0000188114001802046FEF7E4FE00E16946D7
:1021E00089880904D8D58649864F0A40028020682C
:1021F0005021095A3F1D09182878C000C01902E073
:1022000085E03DE04FE0085A83059B0DAB6108D0A7
:10221000AA882969206800F0FDF8A9692869401892
:10222000286100212046FEF7D2F92068014640309F
:10223000008A4018C119E8683E2800E044E00AD945
:10224000C202120CC00601D1521E92B290020122AB
:10225000D203104306E0C203120CC00701D0521C87
:1022600092B2900208802168684A088810400122D2
:102270001203504052005040654A10430880AFE0BE
:102280005021095A0A182978CB005E49091D5918AE
:10229000515A8905890D009121D0AA882969009B8E
:1022A00000F0B8F81BE05022CB00125A5549121822
:1022B000091D5918515A8905890D009104D02A89A0
:1022C0002969009B00F0A6F8297820688A004E4B07
:1022D000815A803319404E4B403319438152A969CA
:1022E00000980818A861296900980A182A616B6982
:1022F000002B03D0E9680098814204D92978204650
:10230000FEF765F903E029782046FEF7D9FB684619
:102310008088000664D51C204743206802993A4A09
:10232000415A3D191140029A28358152A87A002855
:10233000206811D029788A00825C52061ED550226E
:10234000125AC90012182F480818105A83059B0DFD
:10235000AB6124D0EA881EE05021095A0918287878
:10236000C20028481018085A83059B0DAB6121D084
:10237000AA882969206800F062F81BE05022125AEE
:10238000C90012181F48001D0818105A83059B0D1C
:10239000AB6104D02A892969206800F050F82878B8
:1023A00022688000184B115A80331940174BF133C3
:1023B0001943115220685021095A09182878C2007F
:1023C00010481018085A8005800DA86129690A185C
:1023D0002A616B692978002B20460DD0FEF73AFC64
:1023E0002068014640318A886B469A81120400D5E4
:1023F0007DE6002005B0F0BDFEF7DDF8F0E7000057
:102400008F0F0000020400000F8F00008FBF00003C
:1024100080800000101810B5012292025C0880181C
:10242000002C07D002880A70120A4A70801C891C8E
:10243000641EF7D1DA0701D00078087010BD1018BB
:1024400001225B1C920210B55B088018002B08D09B
:102450004A780C78120222430280801C891C5B1E81
:10246000F6D110BD7047000010B50248FFF75EF9C5
:1024700010BD00006C01002010B5406A002146220A
:102480001152C187FFF750F910BD704710B5FEF724
:1024900009F8FFF761FA10BD70B59EB001200390F6
:1024A0000890022610200996222504900095C0026B
:1024B00000240A900B940C946846FEF749FF00280C
:1024C00000D0FEE70720139015940021149616946F
:1024D00013A8FEF749FE002800D0FEE701204004C3
:1024E0001C94179017A8FEF7B9FD002800D0FEE74E
:1024F0001248C269C1030A43C261C0690D94084011
:102500001D9088000E900E481090202012900F947D
:1025100011950DA8FEF77EFDFEF7D0FE7D21C900C6
:10252000FDF704FEFFF700FA0420FFF7EFF90022A1
:102530001146501EFEF71EF81EB070BD001002407E
:102540007FBB00001348016801221143016041680C
:10255000114A114041600168104A11400160016850
:10256000012292049143016041683F221204914389
:102570004160C16A09090901C162016BFF22D432BD
:1025800091430163416B4908490041630021816027
:1025900070470000001002400CB8FF08FFFFF6FE75
:1025A00010B50248FFF7BAFA10BD0000D0010020B4
:1025B00010B50248FFF7B2FA10BD0000100200206B
:1025C000F0B502681A4B0124A4071A4D984203D0B3
:1025D000A04201D0A84203D17026B2434E683243D4
:1025E000154E164F98420AD0A04208D0A84206D0F5
:1025F000134CA04203D0B04201D0B84204D103240E
:102600002402A243CC6822438024A2434C69224383
:1026100002608A68C2620A688262984203D0B0424D
:1026200001D0B84201D10969016301214161F0BDC6
:10263000002C0140000400400044014000480140DB
:102640000020004010B50123046A8B409C430462C3
:10265000036A8A401343036210BD0000F0B5026AAA
:10266000520852000262056A436882697024A243DC
:1026700092080C6892001443022295438A68134E14
:102680002A43114DA84204D0B04202D0104FB842A4
:1026900006D10827BA43CF681743042297433A4626
:1026A000A84204D0B04202D0094DA84206D1032569
:1026B0002D02AB434D691D438B692B4343608461FD
:1026C000496841630262F0BD002C014000440140B2
:1026D0000048014070B5026A10239A430262046AFE
:1026E0004368826973252D02AA430D682D021543A4
:1026F000202294438A6812012243104CA04208D140
:102700001446CA688026B443120122434024A243DF
:1027100005E00B4CA04202D00A4CA04208D1032491
:10272000A402A3434C69A4001C438B699B00234370
:102730004360856149688163026270BD002C01407D
:10274000004401400048014070B5026AFF23013394
:102750009A430262046A4368C2697025AA439208D8
:102760000D68920015430122520294438A681202B6
:102770002243104CA04207D1C414A243CC682402C7
:1027800022430615B24305E00B4CA04202D00B4C8D
:10279000A04208D103242403A3434C6924011C4311
:1027A0008B691B0123434360C5614968C1630262B1
:1027B00070BD0000002C0140004401400048014071
:1027C00030B5026A01231B039A430262056A42681C
:1027D000C36973242402A3430C6824021C4301230D
:1027E0005B039D438B681B032B430A4DA84205D016
:1027F000094DA84202D0094DA84205D10125AD03DB
:10280000AA434D69AD012A434260C461496801642D
:10281000036230BD002C01400044014000480140EB
:10282000FF30FF3002308069002806D0FF300021E1
:10283000FF3002304161084670470220704770B592
:10284000C21DFF32FA321546946900F03FFBE11DCC
:10285000FF31FA31C860A869002808D04868E969E2
:10286000CA688321890061189047002070BD02204A
:1028700070BD70B504460025812100F07FFA01216A
:10288000204600F07BFA8221204600F077FAFF34E0
:10289000FF340234A069002807D0E069406880470F
:1028A000A06900F0D7FD0020A061284670BDFF3070
:1028B00010B5FF301A300AC8002B0AD0CC1DFF34E7
:1028C000FA342078FF2804D09B6862789847FF206C
:1028D0002070002010BD00000A21018000487047D0
:1028E0005C0000204321018000487047AC000020BC
:1028F0004321018000487047680000204321018087
:1029000000487047F0000020F8B50446007C01261E
:1029100000257602002830D0402302228121204663
:1029200000F03EFB402302220121204600F038FB4C
:10293000082303228221204600F032FB87208000FA
:1029400000F08AFDE11DFF31FA31886100281CD0BA
:102950000746C86900688047FF370020FF37023705
:102960007861B861207C7A68002810D0402301216A
:10297000204600F02BFB2846F8BD33460222812179
:10298000204600F00DFB3346CDE70125F3E7334643
:10299000EDE710B54321C9000958002913D0027C86
:1029A000002A09D0FF31FF3102314A68402301215A
:1029B00000F00CFB002010BDFF31FF31023101237C
:1029C0005B024A68F3E7022010BD0246022000299C
:1029D00004D0FF32FF3202320020D1617047FF3055
:1029E000FF3002308069FF30FF300230416000204C
:1029F0007047FF30FF3002308069FF30FF30023017
:102A0000026181600020704770B50C46C11D05460B
:102A1000FF31FA31207860228E69024022D0202ACC
:102A200028D1E288002A16D0000607D5C969607847
:102A30008B6831469847E288314618E0F01DFF3038
:102A40006178FA300170A1794170E28831462846F8
:102A500000F036F80EE0C96960788B6800222146E4
:102A6000984707E060780A2804D1034901222846E4
:102A700000F042F8002070BD5800002010B58522FB
:102A80009200125852689047002010BD134610B5AE
:102A90000A46002100F09AFA002010BD134610B536
:102AA0000A46002100F050FB002010BD10B504467E
:102AB000802100F01BFB0021204600F017FB10BD19
:102AC00010B5FF230324F5331C50C31DF9339A605E
:102AD000DA6013460A46002100F078FA002010BDA3
:102AE00010B5FF210522F5310A5000231A46194678
:102AF00000F06CFA002010BD10B5FF230224F5335E
:102B00001C5082611346C2610A46002100F01CFB82
:102B1000002010BD10B5FF210422F5310A5000231A
:102B20001A46194600F010FB002010BD10B50A46E9
:102B3000024903A000F0D4F8004810BDB4080020FA
:102B400043444320436F6E6669670000122008808B
:102B5000004870472800002010B50A46024903A02B
:102B600000F0BEF8004810BDB408002043444320E4
:102B7000496E746572666163650000000420088018
:102B8000004870472400002010B50A46024903A0FF
:102B900000F0A6F8004810BDB408002053544D6959
:102BA00063726F656C656374726F6E696373000046
:102BB00010B50A46024903A000F092F8004810BD83
:102BC000B408002053544D33322056697274756135
:102BD0006C20436F6D506F727400000010B50A4690
:102BE000024903A000F07CF8004810BDB4080020A2
:102BF0003030303030303030303031410000000083
:102C0000F8B50D4604464988FF300A0AFF30023005
:102C1000130000F02EFC084905091649493E4649B3
:102C20000069237C02682AE0217C02264069002991
:102C300005D0C16A684688470146467040E0816A0F
:102C4000F8E7C9B20B0000F014FC0604080F1317D4
:102C50001E2F0069227C436802E00069227C8368A1
:102C600069461046984712E00069227CC368F7E77E
:102C70000069227C0369F3E70069237C42696946A5
:102C80001846904703E00069227C8369E8E7014623
:102C900016E0217C002907D14069416B68468847CE
:102CA000F5E7217C002904D029462046FFF7FEFEE7
:102CB000F8BD4069016B68468847072201464270AB
:102CC000684600880028F3D0EA88002AF0D08242C3
:102CD00000D90246684602802046FFF70DFFF8BD86
:102CE00070B5002300281CD00446002502E06D1CAE
:102CF000EDB2641C2678002EF9D16C00A41C14805F
:102D0000CC5403225B1CCA5400245B1C06E0CA544A
:102D10005B1CDAB28C54521CD3B2401C0278002ADD
:102D2000F5D170BD10B5002813D0C31DFF33FA33A1
:102D30005C69002C01D000245C61002900D019617D
:102D4000FF210123FD310B54027000F0C7F8002071
:102D500010BD022010BD10B5FF30FF30023000243E
:102D6000006AFDF7F7FC002806D0012801D00228F0
:102D700001D0022400E00124204610BD10B5FF3030
:102D8000FF3002300024006AFDF730FC002806D036
:102D9000012801D0022801D0022400E001242046AD
:102DA00010BDFEB50446FF30E51DE130FF35FA35B4
:102DB00013460190002908D068694269002A49D069
:102DC0000198007F032843D044E02646FF36813631
:102DD0002046716F1430022934D1C2688168009294
:102DE000914207D9891A81608AB219462046FFF7B5
:102DF00055FE13E0406811460746FDF797F9002994
:102E000013D10098874210D3B06F87420DD20022B1
:102E100011462046FFF742FE0020B06700231A4605
:102E20001946204600F0D2F80CE06869C168002914
:102E300005D00198007F032801D12046884720460D
:102E4000FFF74EFE2878012804D10020287001E009
:102E5000204690470020FEBD70B50546FF35E135A0
:102E60002B46203316460446002907D0586982694C
:102E7000002A29D0287F032824D025E0FF21F5311E
:102E8000E01D0959FD3003291ED18268C1688A42BC
:102E90000BD9511A8160C068814200D301468AB2C1
:102EA00031462046FFF7F2FD0EE05869016900291E
:102EB00004D0287F032801D1204688472046FFF709
:102EC00029FE01E020469047002070BDFF3010B57C
:102ED000FF300230006AFDF797FC10BD10B51F49A6
:102EE000C41DC861FF341E49FA341E4821620860BF
:102EF000022208208A6048600020C8608861C8619A
:102F00000A6108620846FDF7A3FF002804D0FF21EC
:102F1000353115A000F0ACFA002218231146206AC2
:102F2000FDF72CFB582300228021206AFDF726FBA9
:102F3000C02300228121206AFDF720FBFF231133EB
:102F400000220121206AFDF719FBFF230133002233
:102F50008221206AFDF712FB002010BD940800209A
:102F600094060020005C00402E2E2F5372632F75B4
:102F70007362645F636F6E662E630000FF30CA0980
:102F8000FF3049060230490E1C23006A59430818D5
:102F9000002A01D0203001E0FF300130807A7047F4
:102FA00070B5FF301D46FF30023013460024006A22
:102FB0002A46FDF733FC002806D0012801D002285C
:102FC00001D0022400E00124204670BD10B5FF307E
:102FD000FF3002300024006AFDF772FD002806D0A1
:102FE000012801D0022801D0022400E0012420465B
:102FF00010BD70B50022044640231146FFF7D0FFF4
:103000004025FF20113005512B460022802120460B
:10301000FFF7C6FFFF200121FD3025620155E01DAD
:10302000FF30FA308169002904D040692179426873
:1030300020469047002070BDFF30E130417F01778E
:103040000020704710B5FF21FD31095C032906D12E
:10305000852189000958C969002900D088470020C6
:1030600010BD01740020704710B5FF30FF300230F2
:103070000024006AFDF780FF002806D0012801D057
:10308000022801D0022400E00124204610BD70B5C2
:1030900004464120C0002018054600F068F821468B
:1030A000FF3181310122084680304A67C2898A6730
:1030B000007AC106C90E0AD001290DD0022910D00C
:1030C000C109C901204600F011F8002070BD294651
:1030D000204600F0B6F8F8E72946204600F09DF9B2
:1030E000F3E72946204600F023F9EEE710B5FF305C
:1030F000FF3002300024006AFDF762FD002806D090
:10310000012801D0022801D0022400E00124204639
:1031100010BD10B5FF30FF3002300024006AFDF70B
:103120004CFF002806D0012801D0022801D002243B
:1031300000E00124204610BDFF30E130017F4177DF
:10314000042101770020704710B5FF30FF300230B6
:103150000024006AFDF77EFD002806D0012801D07A
:10316000022801D0022400E00124204610BD0A7884
:1031700002704A784270CB788A781B02D21842805B
:103180004B790A791B02D21882808A79C97909029F
:103190005118C180704702460020002904D0FF3238
:1031A000FF320232516170470220704710B585220C
:1031B000920012580224002A04D012689047002876
:1031C00000D10024204610BD70B50E468978194DF7
:1031D00004462970012904D931462046FFF766FCD0
:1031E00070BD2046FF30E130027F022A15D0032A4D
:1031F000F2D1002917D0606888420AD0C1B22046B7
:10320000FFF73CFC297861602046FFF7CFFF0228DA
:10321000E2D02046FFF77EFC70BD0029F9D00322E2
:1032200061600277F0E70222027720466160FFF7D3
:1032300025FCEEE75400002010B5FFF76AFF0020E0
:1032400010BDF8B500220092C61DFF364C78174617
:10325000FA3632460125203A230000F00AF90A3CEA
:10326000564150410906412B2841FFF7C9FC5DE05A
:1032700004468888002818D1C888002815D1887885
:1032800017464606107F760E03280ED0BE773146CD
:103290002046FFF7E9FE2046FFF73CFC002E02D057
:1032A0000220387742E03D7740E0204618E0FFF703
:1032B0008BFF3BE0CB88012B12D1127F022A02D078
:1032C000032A0DD104E0012201460831876013E092
:1032D0000122011D10E0127F022A04D0032A02D02D
:1032E000FFF7E4FB22E0C5607168002901D00321EB
:1032F000C160014602220C31FFF7FEFB16E00446D6
:103300004888012812D1756009E00446107F022820
:1033100001D00328C9D14888012807D17760706996
:103320008268204690472046FFF7F4FB0098F8BDDE
:10333000F8B504460D462878E61D4006FF360027FE
:103340000979800FFA36012809D06A78304620388A
:10335000002A38D0012A1ED0032A3DD106E0706928
:1033600029468268204690470020F8BD007F022849
:1033700017D003282CD16888002806D1002904D052
:10338000802902D02046FFF7B1FE70692946826885
:103390002046904713E0007F022802D0032817D16F
:1033A00004E0002918D080291AD115E06888002887
:1033B00012D1480603D02046FFF7CDFCE5E72046B2
:1033C000FFF7A8FB08E0007F022807D003280BD0F6
:1033D00029462046FFF76AFB3846F8BD4806FBD071
:1033E0002046FFF783FEF7E7C80904D04806400DE2
:1033F0000519143504E04806400D0519FF3505355B
:103400002046FFF7BBFD002800D0012028600222E3
:1034100029462046FFF770FBDEE770B50446FF3013
:10342000E130007F0D4603280FD1287901280CD800
:10343000852080000059826820469047E88800284F
:1034400006D12046FFF766FB02E02046FFF72EFB81
:10345000002070BD704700000048704774040020D1
:1034600010B50248FDF76EFC10BD00009406002068
:10347000FEE730B47446641E2578641CAB4200D26B
:103480001D46635D5B00E31830BC184702E008C8C6
:10349000121F08C1002AFAD170477047002001E0CE
:1034A00001C1121F002AFBD17047000008B5FDF7CB
:1034B00001F8FEF7F1FFFEF7C1FCFEF78BFDFEF70A
:1034C00023FDFEF7CDFDFEF743FD00212848FEF762
:1034D000F6FA04212648FEF7F2FA08212448FEF7FE
:1034E0006FFC0C212248FEF76BFC21482149026841
:1034F00051620268091FD1631E490068091D0164F9
:103500000F20FDF72DF81A484038FEF77FFA0D20FE
:10351000FDF726F830BF184F184D194C194EA888E2
:10352000B84223D312484038FEF7ECFB1048FEF7B0
:10353000E9FB0020A8800E484038FEF7E3FB0C486A
:10354000FEF7E0FB092001220321C006FCF79EFFE5
:10355000E169012000070143E161E1690140009157
:103560003068042108433060FDF744FD30BFD6E7E2
:1035700010020020F53F000050C3000000000020B2
:103580000010024000700040000000000000000039
:103590000102030406070809B835000800000020EE
:1035A0006C0100007C010008743600086C010020EA
:1035B0001C1500009C34000881134D2B1B087D0452
:1035C0001A89041AB1041ADD041A2D041A590417B1
:1035D0000403090412011402020216408304405736
:1035E00026020102030113DD011B08D7041AD304CC
:1035F000130102520893127A130A0632021A402B60
:10360000111C090243371125C03209041B01020BAA
:1036100013052416100105240110090104240202D7
:10362000052406170107058203081C1009046D32E2
:103630000A1B0705571A02072A81070938442A403E
:10364000072A8107112B0907440A2204440A17FF9D
:10365000441229140873284C08092AF41AAF0C1ACA
:1036600021041A3F04C11AF1101AE5041AFD041AC4
:04367000D904000079
:04000005080000C12E
:00000001FF
